:020000040800F2
:10000000E8070020150400081B0200081D02000874
:100010002102000825020008290200080000000053
:100020000000000000000000000000002D02000899
:100030002F0200080000000031020008330200080F
:100040002F0400082F0400082F0400082F040008C4
:100050002F0400082F0400083D3900082F04000871
:100060002F0400082F0400082F0400082F040008A4
:100070002F0400082F0400082F0400082F04000894
:100080002F0400082F0400082F0400082F04000884
:100090002F0400082F0400082F0400087F390008EF
:1000A0002F0400082F0400082F0400082F04000864
:1000B0002F04000807A100082F0400082F040008DF
:1000C0002F0400082F0400082F0400082F04000844
:1000D0002F040008FB2000082F0400082F0400084C
:1000E0009F3900082F0400082F0400082F0400087F
:1000F0002F0400082F0400082F0400082F04000814
:100100002F0400082F0400082F0400082F04000803
:100110002F0400082F0400082F0400082F040008F3
:100120002F0400082F0400082F0400082F040008E3
:1001300000F002F800F03FF80AA090E8000C8244BA
:100140008344AAF10107DA4501D100F034F8AFF297
:10015000090EBAE80F0013F0010F18BFFB1A43F0A5
:1001600001031847ECD100000CD20000103A24BF64
:1001700078C878C1FAD8520724BF30C830C144BF0C
:1001800004680C607047000000230024002500264E
:10019000103A28BF78C1FBD8520728BF30C148BFEA
:1001A0000B60704778290AF01D80002070471FB54A
:1001B0001FBD10B510BD0AF011F91146FFF7F7FF8A
:1001C00000F008F80AF02FF903B4FFF7F2FF03BCC0
:1001D00001F038FF1CB54FF4A06000F03BF901F0CE
:1001E000C7FE05F0A2FE03F003FC04F0B9FA03F029
:1001F0003BFB41F61F4142F20F7009F057FF1E20F2
:10020000009009230C220621019040F2E37003F0D4
:10021000F3F801E003F0F0F9FCE7704700BFFEE7F8
:1002200000BFFEE700BFFEE700BFFEE77047704774
:10023000704770470CB50020019000906C48006832
:1002400040F480306A49086000BF6948006800F4E3
:10025000003000900198401C0190009818B9019856
:10026000B0F5A06FF1D16248006800F4003010B121
:100270000120009001E0002000900098012843D167
:100280005C48006840F010005A4908600846006861
:1002900020F0030008600846006840F00200086093
:1002A00053484068524948600846406848600846DC
:1002B000406840F4806048600846406820F47C1044
:1002C00048600846406840F4E81048600846006806
:1002D00040F08070086000BF4548006800F0007082
:1002E0000028F9D04248406820F0030040494860A7
:1002F0000846406840F00200486000BF3C48406843
:1003000000F00C000828F9D10CBD10B5FFF792FFE2
:1003100010BD10B53648006840F00100344908604F
:10032000084640683449084031494860084600683A
:10033000324908402E4908600846006820F48020B1
:1003400008600846406820F4FE0048604FF41F0033
:100350008860FFF7DAFF4FF000602949086010BDA0
:1003600010B5002100200022214B5B6803F00C0136
:1003700021B1042906D0082928D107E0214B224CBD
:10038000236027E01F4B204C236023E0184B5B6861
:1003900003F47010164B5B6803F48032022303EB06
:1003A000904022B9194B4343174C23600DE0104B8A
:1003B0005B6803F4003323B1144B4343124C2360B6
:1003C00003E0104B4343104C236003E00D4B0E4CF5
:1003D000236000BF00BF064B5B68C3F303130C4CE4
:1003E000E15C094B1B68CB40074C236010BD00004B
:1003F00000100240002002400000FFF8FFFFF6FE60
:1004000008ED00E000127A000000002000093D0025
:10041000040000200948804709480047FEE7FEE73E
:10042000FEE7FEE7FEE7FEE7FEE7FEE7FEE7FEE7A4
:1004300004480549054A064B7047000013030008AD
:1004400031010008E8010020E8070020E80300204F
:10045000E803002031490143314A1160704770B50B
:10046000002100230F22C47804B32D4C246804F427
:10047000E064C4F5E064210AC1F10403CA40447891
:1004800004FA03F18478144021430901254C0678CD
:10049000A155047804F01F050124AC4005786D11C6
:1004A000AD0005F1E025C5F8004109E0047804F04D
:1004B0001F050124AC401C4D0678761145F82640F6
:1004C00070BD1A4A0A400243154B1B1F1A60704741
:1004D00039B1134A121D12680243114B1B1D1A60D9
:1004E00006E00F4A121D126882430D4B1B1D1A6055
:1004F0007047042808D14FF0E021096941F0040158
:100500004FF0E022116107E04FF0E021096921F08E
:1005100004014FF0E0221161704700000000FA056D
:100520000CED00E000E400E080E100E080FFFF1F50
:10053000002044490860091D0860091D0860091D64
:10054000086041483F4914310860704700213D4927
:100550008279002A3AD00A46126803689A430B4609
:100560001A600A1D126803689A430B1D1A6002790B
:1005700011440A6803681A430A60324A0832126852
:1005800003689A432F4B08331A601A1D12680368D8
:100590009A432C4B0C331A604279102A0ED11A1F41
:1005A000126803681A43274B08331A601A1D126831
:1005B00003681A43234B0C331A600DE0214942793A
:1005C00011440A6803681A430A6005E0027911447D
:1005D0000A6803689A430A6070470021016001714C
:1005E0000C21417100218171704716491031096851
:1005F0000143144A10321160704701460020114A2D
:10060000143212680A400AB1012000E0002070474D
:100610000C49143108607047014600200022094B44
:100620001B6803EA0102074B14331B680B4013B12C
:100630000AB1012000E0002070470249143108602F
:100640007047000000040140FFFF0F0010B5044692
:10065000CC48844208D10121042001F03BFA00215A
:10066000042001F037FA46E0C748844208D101214E
:10067000082001F02FFA0021082001F02BFA3AE0BF
:10068000C248844208D10121102001F023FA002140
:10069000102001F01FFA2EE0BD48844208D101214C
:1006A000202001F017FA0021202001F013FA22E0A7
:1006B000B848844208D10121402001F00BFA002102
:1006C000402001F007FA16E0B348844208D1012126
:1006D000802001F0FFF90021802001F0FBF90AE001
:1006E000AE48844207D10121801501F0F3F90021C1
:1006F000A01501F0EFF910BD10B50121084601F079
:10070000E9F90021012001F0E5F910BD2DE9F041E2
:10071000024600250026002000230024002791F82F
:1007200003C00CF00F0591F803C00CF0100CBCF1E5
:10073000000F03D091F802C04CEA050591F800C003
:10074000BCF1000F31D0146800202BE04FF0010CF9
:100750000CFA00F3B1F800C00CEA03069E4220D167
:1007600083004FF00F0C0CFA03F7BC4305FA03FCAF
:100770004CEA040491F803C0BCF1280F06D14FF0F5
:10078000010C0CFA00FCC2F814C00AE091F803C096
:10079000BCF1480F05D14FF0010C0CFA00FCC2F877
:1007A00010C0401C0828D1D31460B1F800C0BCF1BF
:1007B000FF0F34DD546800202EE000F1080C4FF0EC
:1007C000010808FA0CF3B1F800C00CEA03069E42D7
:1007D00021D183004FF00F0C0CFA03F7BC4305FA4C
:1007E00003FC4CEA040491F803C0BCF1280F05D1C6
:1007F00000F1080C08FA0CF8C2F8148091F803C054
:10080000BCF1480F07D100F1080C4FF0010808FABD
:100810000CF8C2F81080401C0828CED35460BDE804
:10082000F0814FF6FF710180022181700421C170B7
:1008300070470246002093680B400BB1012000E096
:10084000002070470146886880B270470246002049
:10085000D3680B400BB1012000E000207047014637
:10086000C86880B2704701617047416170470AB142
:10087000016100E041617047C16070474FF4803210
:100880000A4382618161826182698269704702469E
:100890000020434B18684FF68073184040EA02105E
:1008A00008433F4B186070473E49C8617047F0B538
:1008B0000A46002300240021002500F00046B6F17E
:1008C000004F02D1364EF16901E0354E7168C0F338
:1008D000034583B200F44016B6F5401F08D121F05D
:1008E00070612F4E766826F070662D4F7E6012E0A4
:1008F00000F48016B6F5801F06D1032606FA05F42B
:10090000A14341F0706106E0460D360103FA06F698
:10091000B14341F0706122B1460D360103FA06F68B
:10092000314300F00046B6F1004F02D11C4EF16198
:1009300001E01B4E7160F0BD30B500228B071C0F2B
:100940000F2303FA04F2164B08338C1053F82430AB
:100950009343134C08348D1044F8253023468C10F3
:1009600053F824308C07240F00FA04F423430C4C72
:1009700008348D1044F8253030BD0A49DC31086058
:100980007047000000080140000C014000100140C9
:100990000014014000180140001C014000200140EB
:1009A000000001400000204210B50446FE48844289
:1009B00008D10121C01401F08DF80021E01401F0EC
:1009C00089F8C4E0B4F1804F08D10121084601F054
:1009D0008EF80021012001F08AF8B8E0F348844243
:1009E00008D10121022001F082F80021022001F04B
:1009F0007EF8ACE0EE48844208D10121042001F0E9
:100A000076F80021042001F072F8A0E0E948844261
:100A100008D10121082001F06AF80021082001F026
:100A200066F894E0E448844208D10121102001F0E6
:100A30005EF80021102001F05AF888E0DF48844277
:100A400008D10121202001F052F80021202001F0DE
:100A50004EF87CE0DA48844208D10121401401F0CC
:100A600039F80021601401F035F870E0D54884426F
:100A700009D10121C80401F02DF800214FF4002014
:100A800001F028F863E0D048844209D1012108052B
:100A900001F020F800214FF4801001F01BF856E01F
:100AA000CA48844209D10121480501F013F8002108
:100AB0004FF4001001F00EF849E0C548844208D117
:100AC0000121402001F013F80021402001F00FF82F
:100AD0003DE0C048844208D10121802001F007F8A0
:100AE0000021802001F003F831E0BB48844208D1A6
:100AF0000121801500F0FBFF0021A01500F0F7FF99
:100B000025E0B648844209D10121080400F0E2FF43
:100B100000214FF4803000F0DDFF18E0B04884423F
:100B200009D10121480400F0D5FF00214FF4003025
:100B300000F0D0FF0BE0AB48844208D101218804CB
:100B400000F0C8FF00214FF4802000F0C3FF10BD6B
:100B500000220288944B98420ED0994B98420BD0B9
:100B6000B0F1804F08D0914B984205D0904B9842FD
:100B700002D0904B984204D14FF68F731A404B88A5
:100B80001A438D4B984207D08C4B984204D04FF6B5
:100B9000FF431A40CB881A4302808B8883850B88D9
:100BA0000385814B98420BD0854B984208D08B4BE4
:100BB000984205D08A4B984202D08A4B984201D184
:100BC0000B7A038601238382704770B500240022CC
:100BD0000023058C4FF6FE7635400584028C838811
:100BE000048B4FF68F752C40B51E2C400D882C437E
:100BF000751E2A400D892A434D882A436A4DA84212
:100C00000BD06F4DA84208D0744DA84205D0744D4A
:100C1000A84202D0734DA84213D14FF6F7752A406F
:100C20004D892A434FF6FB752A408D882A434FF69B
:100C3000FF652B404FF6FF552B408D892B43CD8907
:100C40002B4383800483CD888586028470BD70B574
:100C5000002400220023058C4FF6EF7635400584F2
:100C6000028C8388048B48F6FF752C404FF6FF45B5
:100C70002C400D884FF6FF7606EA05252C434FF6EB
:100C8000DF752A400D8906EA05152A434D8806EAD4
:100C900005152A43444DA84202D0494DA8421DD112
:100CA0004FF67F752A404D894FF6FF7606EA051507
:100CB0002A434FF6BF752A408D8806EA05152A4358
:100CC0004FF6FF352B404FF2FF752B408D8906EA1A
:100CD00085052B43CD8906EA85052B438380048354
:100CE000CD880587028470BD70B5002400220023E2
:100CF000058C4FF6FF6635400584028C8388848B13
:100D00004FF68F752C404FF6FC752C400D882C4308
:100D10004FF6FF552A400D894FF6FF7606EA052566
:100D20002A434D8806EA05252A431F4DA84202D0D2
:100D3000234DA8421DD14FF2FF752A404D894FF631
:100D4000FF7606EA05252A434FF6FF352A408D88AF
:100D500006EA05252A434EF6FF752B404DF6FF7532
:100D60002B408D8906EA05152B43CD8906EA05152A
:100D70002B4383808483CD888587028470BD70B5C2
:100D8000002200230024058C4EF6FF7635400584B2
:100D9000038C8488828B48F6FF752A404FF6FF4506
:100DA0002A400D8820E00000002C01400004004093
:100DB00000080040000C00400010004000140040FB
:100DC00000340140004C01400050014000540140FB
:100DD00000180040001C004000200040004001407E
:100DE00000440140004801404FF6FF7606EA052521
:100DF0002A434DF6FF752B400D8906EA05352B4336
:100E00004D8806EA05352B43FA4DA84202D0FA4D2B
:100E1000A84208D14BF6FF752C408D894FF6FF761E
:100E200006EA85152C4384808283CD88A0F8405043
:100E3000038470BD828B4FF2FF331A408283828B12
:100E40004FF6FF7303EA01231A4382837047F0B51C
:100E50000C461546002200210026078C4EF6FF7C2A
:100E600007EA0C070784828B018C4FF6FF7707EAAD
:100E7000043640F6FF473A404FF6FF7707EA05276A
:100E80003A434FF6FF7707EA03373A43D94FB84260
:100E90000ED0D94FB8420BD0B0F1804F08D0D74F09
:100EA000B84205D0D64FB84202D0D64FB84206D18C
:100EB0004DF6FF77394046F48057394305E047F651
:100EC000FF57394044F48057394382830184F0BD91
:100ED000828B4FF6F3731A408283828B0A4382839C
:100EE0007047F0B50C461546002200210026078CFD
:100EF0004FF6FF6C07EA0C070784828B018C4FF6D4
:100F0000FF7707EA04264FF60C773A404FF6FF7753
:100F100007EA03172F433A43B64FB8420ED0B64FF5
:100F2000B8420BD0B0F1804F08D0B44FB84205D0D2
:100F3000B34FB84202D0B34FB84206D14FF6FF5775
:100F4000394046F48077394305E04FF2FF57394086
:100F500044F48077394382830184F0BD028B4FF2E1
:100F6000FF331A400283028B4FF6FF7303EA01231B
:100F70001A4302837047F0B50C4615460022002143
:100F80000026078C4FF6EF7C07EA0C070784028BDC
:100F9000018C4FF6FF7707EA041640F6FF473A4008
:100FA0004FF6FF7707EA03373A434FF6FF7707EA32
:100FB00005273A438F4FB8420ED08F4FB8420BD01F
:100FC000B0F1804F08D08D4FB84205D08C4FB84259
:100FD00002D08C4FB84206D14FF6DF77394046F049
:100FE0001007394305E04FF65F77394044F01007AA
:100FF000394302830184F0BD028B4FF6F3731A402C
:101000000283028B0A4302837047F0B50C461546F3
:1010100000220021068C4FF6FE773E400684028BAC
:10102000018C4FF60C7632407E1C06EA03162E43E6
:101030003243704EB0420ED06F4EB0420BD0B0F182
:10104000804F08D06D4EB04205D06D4EB04202D0F8
:101050006C4EB04206D14FF6FD76314044F00106A9
:10106000314305E04FF6F576314044F00106314357
:1010700002830184F0BD70B505460C465D4885428B
:101080000ED05D4885420BD0B5F1804F08D05B484B
:10109000854205D05A48854202D05A48854200D13F
:1010A00000E000BF208850B92389A28861882846C3
:1010B000FFF7ABFFE1882846FFF79EFF25E0208879
:1010C00004280AD12389A28861882846FFF753FFA4
:1010D000E1882846FFF742FF17E0208808280AD158
:1010E0002389A28861882846FFF7FBFEE18828460D
:1010F000FFF7EEFE09E02389A28861882846FFF702
:10110000A6FEE1882846FFF795FE70BD2DE9F04167
:1011100005460C4600260127608808B9022600E033
:101120000026A088012801D1022700E0012720889D
:10113000A0B92389A28861882846FFF766FFE18865
:101140002846FFF759FF23893A4631462846FFF7DC
:1011500012FFE1882846FFF701FF13E02389A288E8
:1011600061882846FFF707FFE1882846FFF7F6FE6B
:1011700023893A4631462846FFF747FFE18828464B
:10118000FFF73AFFBDE8F0810A884B881A438B8845
:101190001A43CB881A430B891A434B891A438B890C
:1011A0001A43A0F8442070474FF6FF718180002158
:1011B0000180C1804180017270470021018041801F
:1011C0008180C180018141818181C181704700217D
:1011D00001804180012181800021C180018170470F
:1011E0000021018041808180C18001814181818114
:1011F00070470000002C0140003401400004004012
:1012000000080040000C004021B1028842F00102B9
:10121000028004E002884FF6FE731A400280704795
:1012200031B1B0F8442042F40042A0F8442005E077
:10123000B0F84420C2F30E02A0F8442070471AB15F
:1012400083890B43838102E083898B4383817047C9
:101250008182704741EA0203A0F8483070471AB112
:1012600083890B43838102E083898B4383817047A9
:1012700001894FF6F8721140018170470A4600213A
:1012800001894FF68F73194011430181704730B5C2
:1012900004460D4629462046FFF7F0FF208940F01E
:1012A0000700208130BD2DE9F04104460D46164669
:1012B0001F46602D06D13B46012231462046FFF7EE
:1012C0005AFE05E03B46012231462046FFF79DFECF
:1012D00029462046FFF7D2FF208940F007002081F1
:1012E000BDE8F08130B50C4600210189C9B24FF646
:1012F000FF7505EA0325154325432943018130BDC8
:101300002DE9F04105460E4617469846002443460F
:101310003A4631462846FFF7E5FF2C894FF6F8702C
:10132000044044F007044FF68F70044044F070040A
:101330002C81BDE8F081F0B504460D4616461F46E7
:101340003B46324629462046FFF7CCFF208940F431
:1013500080402081F0BD0185828270470A460021CD
:1013600001884FF68F731940114301807047F0B523
:101370000C4615461E460021002200230189028BDF
:10138000038C4FF6F877394021434FF6FC473A403B
:1013900040F201173A434FF6DD773B404FF6FF77B7
:1013A00007EA06172F433B43018102830384F0BD04
:1013B0000A460021018B4FF68F73194011430183B8
:1013C00070470A460021018B48F6FF7319404FF61B
:1013D000FF7303EA02231943018370470A46002181
:1013E000818B4FF68F7319401143818370470A46F2
:1013F0000021818B48F6FF7319404FF6FF7303EA13
:10140000022319438183704721B1028842F0800290
:10141000028004E002884FF67F731A400280704712
:1014200021B1828842F00402828004E082884FF673
:10143000FB731A408280704721B1828842F0080213
:10144000828004E082884FF6F7731A4082807047EA
:1014500021B1828842F00102828004E082884FF646
:10146000FE731A40828070470A460021018B4FF6B6
:10147000F77319401143018370470A460021018B1D
:101480004FF2FF7319404FF6FF7303EA022319432B
:10149000018370470A460021818B4FF6F77319408C
:1014A0001143818370470A460021818B4FF2FF73FD
:1014B00019404FF6FF7303EA0223194381837047F3
:1014C0000A460021018B4FF6FB731940114301833B
:1014D00070470A460021018B4FF6FF3319404FF643
:1014E000FF7303EA02231943018370470A46002170
:1014F000818B4FF6FB7319401143818370470A4675
:101500000021818B4FF6FF3319404FF6FF7303EA3A
:1015100002231943818370470A460021018B4FF64D
:101520007F7319401143018370470A460021018BE4
:10153000C1F30E014FF6FF7303EA0223194301833F
:1015400070470A460021818B4FF67F731940114383
:10155000818370470A460021818BC1F30E014FF64B
:10156000FF7303EA02231943818370470A4600216F
:10157000018C4FF6FD7319401143018470470A46F0
:101580000021018C4FF6F773194011430184704715
:101590000A460021018C4FF6DF7319404FF6FF73A6
:1015A00003EA02131943018470470A460021018CA3
:1015B0004FF67F7319404FF6FF7303EA0213194386
:1015C000018470470A460021018C4FF6FF531940F1
:1015D0004FF6FF7303EA02231943018470470A465A
:1015E0000021018C4FF2FF7319404FF6FF7303EA9D
:1015F00002231943018470470A460021018C4DF6ED
:10160000FF7319404FF6FF7303EA02331943018455
:10161000704730B5002301248C40A3B2048C9C4356
:101620000484048C02FA01F5ADB22C43048430BD6D
:1016300030B5002304248C40A3B2048C9C43048462
:10164000048C02FA01F5ADB22C43048430BD70B5B0
:101650000346002000241846183001258D40ACB206
:101660001D8CA5431D8409B1082909D100EB610037
:10167000056825F0700505600568154305600EE0F6
:101680000D1FC5F34E052844056825F4E0450560A7
:1016900005684FF6FF7606EA02263543056070BD01
:1016A00021B1028842F00202028004E002884FF673
:1016B000FD731A400280704721B1028842F0040293
:1016C000028004E002884FF6FB731A4002807047E4
:1016D00021B1828842F08002828004E082884FF645
:1016E0007F731A408280704702884FF6F7731A4062
:1016F000028002880A430280704782884FF68F7307
:101700001A40828082880A438280704702894FF69D
:10171000F8731A40028102890A43028170470289E4
:101720004FF67F731A40028102890A430281704793
:101730008184704781857047818670470187704733
:1017400081877047A0F84010704702884FF6FF432A
:101750001A40028002880A43028070470146888E40
:1017600070470146088F70470146888F70470146D1
:10177000B1F8400070470146888C70470146088DDB
:10178000704702460020138A0B400BB1012000E095
:1017900000207047CA430282704730B502460020DD
:1017A00000230024158A05EA0103958905EA01044E
:1017B00013B10CB1012000E0002030BDCA43028209
:1017C00070470000DF48006840F00100DD49086014
:1017D00008464068DC490840DA4948600846006825
:1017E000DA490840D74908600846006820F480209C
:1017F00008600846406820F4FE0048604FF41F006F
:1018000088607047CF49096821F48031CD4A116062
:101810001146096821F480211160B0F5803F03D0A2
:10182000B0F5802F0ED106E0C649096841F4803139
:10183000C44A116007E0C349096841F4A021C14AC4
:10184000116000E000BF00BF704710B501460022E4
:10185000002300204A11012A02D1BA4C236806E075
:10186000022A02D1B74C236A01E0B64C636A01F048
:101870001F02012494401C400CB1012000E0002014
:1018800010BD38B5002000900024002500BF312095
:10189000FFF7DBFF05460098401C00900098B0F56C
:1018A000A06F01D0002DF2D03120FFF7CEFF08B19C
:1018B000012400E00024204638BD01460020A14A52
:1018C000106820F0F80040EAC10010607047A0499D
:1018D00008607047024600209A4B586820F47C103C
:1018E00042EA01031843974B5860704798490866CD
:1018F000704701460020934A506820F003000843D7
:10190000506070478F48406800F00C0070470146F7
:1019100000208C4A506820F0F00008435060704767
:1019200001460020874A506820F4E0600843506078
:10193000704701460020834A506820F4605040EA16
:10194000C1005060704729B17E4A527A02437D4BF4
:101950005A7204E07B4A527A82437A4B5A72704739
:101960007B49D8310860704701460020754A5068AD
:1019700020F440400843506070470021714A2032F3
:101980001170704A82F82010012802D004280AD170
:1019900004E001216B4A2032117005E00521694AFB
:1019A0002032117000E000BF00BF70476949086035
:1019B00070476449096A0143624A11627047654988
:1019C00044390860704730B500210022002400230C
:1019D0005C4D6D6805F00C0121B1042905D0082982
:1019E00023D105E05C4D056022E05B4D05601FE002
:1019F000544D6D6805F47012524D6D6805F48034D5
:101A0000022505EB92421CB9544D554305600BE08D
:101A10004C4D6D6805F400351DB1504D55430560C2
:101A200002E04D4D5543056002E04B4D056000BF9F
:101A300000BF444D6D6805F0F0010909484D6B5C2D
:101A40000568DD4045603F4D6D6805F4E061090AB9
:101A5000434D6B5C4568DD4085603A4D6D6805F42B
:101A60006051C90A3E4D6B5C4568DD40C560354D2F
:101A70006D6805F44041890B3A4D6B5CC568B5FB58
:101A8000F3F5056130BD29B12E4A526902432D4B51
:101A90005A6104E02B4A526982432A4B5A617047CB
:101AA00029B1284A92690243264B9A6104E0254AEB
:101AB00092698243234B9A61704729B1214AD269C6
:101AC0000243204BDA6104E01E4AD26982431D4B77
:101AD000DA61704729B11B4AD2680243194BDA60B8
:101AE00004E0184AD2688243164BDA60704729B185
:101AF000144A12690243134B1A6104E0114A126935
:101B00008243104B1A617047124940390860704790
:101B10000F49C86470470B49C87170470948406A4B
:101B200040F0807007494862704701460020054A2E
:101B300092680A400AB1012000E000207047014984
:101B400088727047001002400000FFF8FFFFF6FEA9
:101B5000000042428004424200127A0000093D0027
:101B6000140000202400002010B50446FB488442E5
:101B700009D101218803FFF7ADFF00214FF4804018
:101B8000FFF7A8FF32E0F648844209D1012148045A
:101B9000FFF7ADFF00214FF40030FFF7A8FF25E06D
:101BA000F048844209D101218804FFF7A0FF0021F9
:101BB0004FF48020FFF79BFF18E0EB48844209D1E7
:101BC0000121C804FFF793FF00214FF40020FFF725
:101BD0008EFF0BE0E548844208D101210805FFF79C
:101BE00086FF00214FF48010FFF781FF10BD2DE923
:101BF000F04786B005460E460024A24600BFA14627
:101C00000027B08900B100BF2F462C8A4CF6FF7028
:101C10000440F08804432C82AC894EF6F310044053
:101C2000B08831890843718908430443AC81AC8A88
:101C30004FF6FF400440B0890443AC8201A8FFF78F
:101C4000C2FEC648874202D1DDF810A001E0DDF8EF
:101C50000CA0A88900F4004040B10AEBCA0000EBD8
:101C60000A1031684900B0FBF1F807E00AEBCA003E
:101C700000EB0A1031688900B0FBF1F86420B8FB72
:101C8000F0F004012009642101FB1089A88900F407
:101C9000004040B1322000EBC900B0FBF1F000F091
:101CA0000700044308E0322000EB09106421B0FB78
:101CB000F1F000F00F0004432C8106B0BDE8F0877E
:101CC0004FF41651016000218180C18001810C21F7
:101CD000418100218181704710B502460020108AA1
:101CE0004FF2FF0318400B884C8823438C88234312
:101CF000CC8823431843108210BD0021018041800D
:101D00008180C180704721B1828942F40052828172
:101D100004E082894DF6FF731A4082817047F0B566
:101D20000346002400260025002040F66A17B94229
:101D300000D100BF1846C1F3421401F01F0601276D
:101D400007FA06F5012C01D10C3004E0022C01D178
:101D5000103000E014301AB107682F43076002E02A
:101D60000768AF430760F0BD1AB1838A0B438382D3
:101D700002E0838A8B4383827047028A4FF6F073B6
:101D80001A400282028A0A430282704782894FF215
:101D9000FF731A40828182890A438281704721B190
:101DA000828942F00202828104E082894FF6FD734B
:101DB0001A4082817047028A4FF6DF731A4002820E
:101DC000028A0A430282704721B1028A42F48042A9
:101DD000028204E0028A4BF6FF731A4002827047C7
:101DE000C1F308028280704701468888C0F308006A
:101DF0007047818941F0010181817047028BD2B225
:101E00000283028B42EA012202837047028B02F4B2
:101E10007F420283028B0A430283704721B1828A88
:101E200042F02002828204E0828A4FF6DF731A4079
:101E30008282704721B1828A42F01002828204E0DD
:101E4000828A4FF6EF731A408282704721B1828AEC
:101E500042F00802828204E0828A4FF6F7731A4049
:101E60008282704721B1828942F40042828103E07C
:101E70008289C2F30E028281704721B1828A42F4C4
:101E80000062828204E0828A4FF2FF731A408282EB
:101E90007047828A4FF6FB731A408282828A0A4315
:101EA0008282704721B1828A42F00202828204E07B
:101EB000828A4FF6FD731A408282704702460020E4
:101EC000B1F5007F00D100BF13880B400BB101209A
:101ED00000E00020704701F40072B2F5007F00D1ED
:101EE00000BFCA430280704770B502460024002339
:101EF0000025002040F66A16B14200D100BFC1F3B0
:101F0000421501F01F03012606FA03F3012D02D149
:101F10009689334006E0022D02D1168A334001E053
:101F2000968A33400C12012606FA04F416883440CF
:101F300013B10CB1012000E0002070BD10B50022EB
:101F4000002340F66A14A14200D100BF0A12012406
:101F50009440A3B2DC43048010BD0000003801406F
:101F60000044004000480040004C00400050004049
:101F700010B56FF00400FEF7BCFA2E4800682E4939
:101F8000B0FBF1F02D4908700846007800EB4001E5
:101F9000C1EBC0104FF6FF7101EAC000284908806C
:101FA00010BD0146254A12784A434FF0E0235A619A
:101FB00000229A611A46126942F001021A6100BFBA
:101FC0004FF0E022106900F001021AB100F48032F3
:101FD000002AF5D04FF0E022126922F001024FF002
:101FE000E0231A6100229A6170470146144A128860
:101FF0004A434FF0E0235A6100229A611A4612695F
:1020000042F001021A6100BF4FF0E022106900F0B7
:1020100001021AB100F48032002AF5D04FF0E0221C
:10202000126922F001024FF0E0231A6100229A6146
:10203000704700000000002000127A0028000020F5
:102040002A000020014600BF704700BF494A12889D
:1020500002F04002002AF9D0C2B2464B1B1D1A8082
:10206000704710B586B00446012144F20400FFF722
:1020700017FD4FF40070ADF8140003208DF8160022
:1020800018208DF8170005A93B48FEF73FFB4FF4D9
:102090008060ADF8140004208DF8170005A93648BB
:1020A000FEF734FB25208DF8000003208DF8010099
:1020B0008DF8020001208DF803006846FEF7CFF985
:1020C00001940020ADF80800ADF80A00ADF80C004E
:1020D000ADF810000C20ADF80E0001A92548FFF75F
:1020E00086FD012240F225512248FFF718FE01210A
:1020F0002048FFF708FE06B010BD10B540F225518C
:102100001C48FFF7F1FE10B31A48FFF76DFEC4B28A
:102110001A48008800F40040C8B91848008800F444
:10212000804060B10A2C03D000201449088020E0D0
:102130001248008840F400401049088019E00D2C36
:1021400006D10E48008840F480400C49088010E019
:102150000A480088C0F30D0009490C54074800885C
:10216000401C0649088008460088C72801DD002079
:10217000088010BD003801400008014030000020F8
:10218000900000201CB50020FE4908801820009017
:10219000FD480423F021C268322007F09AFEFBA01C
:1021A00018210B460522CDE90010F021642007F02C
:1021B00049FF18200090F4480223F021026973209F
:1021C00007F087FEF1A018210B460522CDE900108B
:1021D000F021912007F036FF18200090EA480223F2
:1021E000F0214269A02007F074FE18200090E64814
:1021F00002234FF48C710268322007F06AFEE3A0DC
:1022000018210B460522CDE900104FF48C714B20AC
:1022100007F018FF18200090DB4802234FF48C7160
:1022200042685A2007F055FED8A018210B46052217
:10223000CDE900104FF48C71732007F003FF1820D4
:102240000090D14802234FF48C718268822007F0FD
:1022500040FE1CBD0FB597B019980D9000EBD070E3
:10226000C0F34F00159015991798401A80B214903A
:1022700015991898401A80B213901C980B2803DD0A
:102280001C980C38C0B21C901A980D9000EBD070BE
:102290004010001DC0B20E90BD48007809F070FAE1
:1022A000BC490D9009F0AAF91690BB48007809F0D6
:1022B00067FA0D90169909F03FF91690169809F0F3
:1022C0000FF9B64AB64BCDE9000108F015FFCDE98C
:1022D000020108F031FCCDE9060103221A99159894
:1022E00002FB11002838039008F0DBFECDE9040161
:1022F000DDE9062308F000FFCDE90A01DDE914015C
:102300000844079008F0CDFECDE90801DDE90A2375
:1023100008F062FCCDE90C0108F096FE80B2129044
:10232000169809F0DDF89D4A9D4BCDE9000108F0B3
:10233000E3FECDE9020108F0B1FBCDE9060103227D
:102340001A99159802FB11002838039008F0A9FE8D
:10235000CDE90401DDE9062308F0CEFECDE90A014E
:10236000159913980844079008F09BFECDE90801E1
:10237000DDE90A2308F0CAFFCDE90C0108F064FE8C
:1023800080B21090169809F0ABF8844A844BCDE9DE
:10239000000108F0B1FECDE9020108F0CDFBCDE966
:1023A00006010E9808F094FECDE90401DDE906234C
:1023B00008F0A2FECDE90A01DDE914010844079006
:1023C00008F06FFECDE90801DDE90A2308F004FCFE
:1023D000CDE90C0108F038FE80B21190169809F092
:1023E0007FF86E4A6E4BCDE9000108F085FECDE91D
:1023F000020108F053FBCDE906010E9808F068FED3
:10240000CDE90401DDE9062308F076FECDE90A01F5
:10241000159913980844079008F043FECDE9080188
:10242000DDE90A2308F072FFCDE90C0108F00CFE8B
:1024300080B20F904FF6FF700221CDE90010DDE968
:102440000F31DDE9112001F0E7FC1A980D9000EB47
:10245000D0704010C01CC0B20E905248007809F0F5
:102460008FF94C490D9009F0C9F81690484800784A
:1024700009F086F90D90169909F05EF816901698F5
:1024800009F02EF8484A494BCDE9000108F034FE26
:10249000CDE9020108F050FBCDE9060102221A99AC
:1024A000159802FB11001E38039008F0FAFDCDE9E3
:1024B0000401DDE9062308F01FFECDE90A01DDE98C
:1024C00014010844079008F0ECFDCDE90801DDE9AE
:1024D0000A2308F081FBCDE90C0108F0B5FD80B2BC
:1024E0001290169808F0FCFF2F4A304BCDE90001FE
:1024F00008F002FECDE9020108F0D0FACDE90601AC
:1025000002221A99159802FB11001E38039008F058
:10251000C8FDCDE90401DDE9062308F0EDFDCDE9B4
:102520000A01159913980844079008F0BAFDCDE9FF
:102530000801DDE90A2308F0E9FECDE90C0108F005
:1025400083FD80B21090169808F0CAFF164A174B08
:10255000CDE9000108F0D0FDCDE9020108F0ECFA68
:10256000CDE906010E9808F0B3FDCDE90401DDE9DF
:10257000062308F0C1FDCDE90A01DDE91401084494
:10258000079015E036000020480000202F000000D2
:1025900033000020000070423200002065732D38A7
:1025A00052C1E03F34000020D5EB7BF3E9CEBA3FC7
:1025B00008F077FDCDE90801DDE90A2308F00CFBFE
:1025C000CDE90C0108F040FD80B21190169808F09A
:1025D00087FFFE4AFE4BCDE9000108F08DFDCDE9F5
:1025E000020108F05BFACDE906010E9808F070FDD3
:1025F000CDE90401DDE9062308F07EFDCDE90A01FD
:10260000159913980844079008F04BFDCDE908018F
:10261000DDE90A2308F07AFECDE90C0108F014FD8B
:1026200080B20F904FF6FF700121CDE90010DDE977
:102630000F31DDE9112001F0EFFB1A980D9000EB4E
:10264000D0704010C01CC0B20E90E248007808F074
:102650003FFDDE4ADE4BCDE9000108F04DFDCDE93E
:10266000020108F069FACDE906011A991598401A95
:102670001938039008F015FDCDE90401DDE90623C2
:1026800008F03AFDCDE90A01DDE91401084407909C
:1026900008F007FDCDE90801DDE90A2308F09CFAFE
:1026A000CDE90C0108F0D0FC80B21290C948007846
:1026B00008F00EFDC54AC64BCDE9000108F01CFD2F
:1026C000CDE9020108F0EAF9CDE906011A99159859
:1026D000401A1938039008F0E4FCCDE90401DDE963
:1026E000062308F009FDCDE90A011599139808445D
:1026F000079008F0D6FCCDE90801DDE90A2308F0CF
:1027000005FECDE90C0108F09FFC80B21090B148A5
:10271000007808F0DDFCAD4AAD4BCDE9000108F0D2
:10272000EBFCCDE9020108F007FACDE906010E98AD
:1027300008F0CEFCCDE90401DDE9062308F0DCFC5D
:10274000CDE90A01DDE914010844079008F0A9FC6D
:10275000CDE90801DDE90A2308F03EFACDE90C01D4
:1027600008F072FC80B211909A48007808F0B0FC32
:10277000964A974BCDE9000108F0BEFCCDE9020175
:1027800008F08CF9CDE906010E9808F0A1FCCDE91E
:102790000401DDE9062308F0AFFCCDE90A01159933
:1027A00013980844079008F07CFCCDE90801DDE9A6
:1027B0000A2308F0ABFDCDE90C0108F045FC80B21E
:1027C0000F904FF6FF700021CDE90010DDE90F31C9
:1027D000DDE9112001F020FB1A980D9000EBD0707C
:1027E0004010001DC0B20E901D9808F0C9FF7A4934
:1027F0000D9008F003FF16901C9808F0C1FF0D9093
:10280000169908F099FE1690169808F069FE734A1A
:10281000734BCDE9000108F06FFCCDE9020108F02F
:102820008BF9CDE9060103221A99159802FB1100D4
:102830002838039008F035FCCDE90401DDE90623D2
:1028400008F05AFCCDE90A01DDE9141008440790AC
:1028500008F027FCCDE90801DDE90A2308F0BCF9FE
:10286000CDE90C0108F0F0FB80B21290169808F048
:1028700037FE5A4A5A4BCDE9000108F03DFCCDE93C
:10288000020108F00BF9CDE9060103221A99159807
:1028900002FB11002838039008F003FCCDE9040185
:1028A000DDE9062308F028FCCDE90A011599139803
:1028B0000844079008F0F5FBCDE90801DDE90A239B
:1028C00008F024FDCDE90C0108F0BEFB80B21090A9
:1028D000169808F005FE414A414BCDE9000108F089
:1028E0000BFCCDE9020108F027F9CDE906010E98AD
:1028F00008F0EEFBCDE90401DDE9062308F0FCFB5E
:10290000CDE90A01DDE914010844079008F0C9FB8C
:10291000CDE90801DDE90A2308F05EF9CDE90C01F3
:1029200008F092FB80B21190169808F0D9FD2B4A5E
:102930002B4BCDE9000108F0DFFBCDE9020108F0E7
:10294000ADF8CDE906010E9808F0C2FBCDE904010F
:10295000DDE9062308F0D0FBCDE90A0115991398AB
:102960000844079008F09DFBCDE90801DDE90A2342
:1029700008F0CCFCCDE90C0108F066FB80B20F90AA
:1029800000200221CDE90010DDE90F31DDE9112041
:1029900001F042FA1A980D9000EBD0704010C01C64
:1029A000C0B20E901E9808F0EBFE0B490D9008F097
:1029B00025FE16901D9808F0E3FE0D90169908F07C
:1029C000BBFD1690169808F08BFD0BE0D5EB7BF362
:1029D000E9CEBA3F340000200000704265732D3804
:1029E00052C1E03FFD4AFE4BCDE9000108F084FBF7
:1029F000CDE9020108F0A0F8CDE9060102221A99FA
:102A0000159802FB11001E38039008F04AFBCDE92F
:102A10000401DDE9062308F06FFBCDE90A01DDE9D9
:102A200014010844079008F03CFBCDE90801DDE9FA
:102A30000A2308F0D1F8CDE90C0108F005FB80B2BB
:102A40001290169808F04CFDE44AE54BCDE90001E0
:102A500008F052FBCDE9020108F020F8CDE90601AB
:102A600002221A99159802FB11001E38039008F0F3
:102A700018FBCDE90401DDE9062308F03DFBCDE9B3
:102A80000A01159913980844079008F00AFBCDE94C
:102A90000801DDE90A2308F039FCCDE90C0108F052
:102AA000D3FA80B21090169808F01AFDCB4ACC4B9E
:102AB000CDE9000108F020FBCDE9020108F03CF867
:102AC000CDE906010E9808F003FBCDE90401DDE92C
:102AD000062308F011FBCDE90A01DDE914010844E1
:102AE000079008F0DEFACDE90801DDE90A2308F0D5
:102AF00073F8CDE90C0108F0A7FA80B2119016988E
:102B000008F0EEFCB54AB64BCDE9000108F0F4FA46
:102B1000CDE9020107F0C2FFCDE906010E9808F0E9
:102B2000D7FACDE90401DDE9062308F0E5FACDE99D
:102B30000A01159913980844079008F0B2FACDE9F4
:102B40000801DDE90A2308F0E1FBCDE90C0108F0FA
:102B50007BFA80B20F9000200121CDE90010DDE961
:102B60000F31DDE9112001F057F91A980D9000EBB3
:102B7000D0704010C01CC0B20E901E9808F0A8FA89
:102B8000964A974BCDE9000108F0B6FACDE902016B
:102B900007F0D2FFCDE906011A991598401A1938A5
:102BA000039008F07EFACDE90401DDE9062308F080
:102BB000A3FACDE90A01DDE914010844079008F001
:102BC00070FACDE90801DDE90A2308F005F8CDE93E
:102BD0000C0108F039FA80B212901E9808F078FAC9
:102BE0007E4A7F4BCDE9000108F086FACDE902016B
:102BF00007F054FFCDE906011A991598401A1938C3
:102C0000039008F04EFACDE90401DDE9062308F04F
:102C100073FACDE90A01159913980844079008F052
:102C200040FACDE90801DDE90A2308F06FFBCDE9A0
:102C30000C0108F009FA80B210901E9808F048FACA
:102C4000664A674BCDE9000108F056FACDE902016A
:102C500007F072FFCDE906010E9808F039FACDE9C8
:102C60000401DDE9062308F047FACDE90A01DDE9B0
:102C700014010844079008F014FACDE90801DDE9D1
:102C80000A2307F0A9FFCDE90C0108F0DDF980B2B5
:102C900011901E9808F01CFA504A514BCDE90001E2
:102CA00008F02AFACDE9020107F0F8FECDE90601A5
:102CB0000E9808F00DFACDE90401DDE9062308F0CD
:102CC0001BFACDE90A01159913980844079008F0FA
:102CD000E8F9CDE90801DDE90A2308F017FBCDE9A1
:102CE0000C0108F0B1F980B20F9000200090019023
:102CF000DDE90F31DDE9112001F08EF839491C982A
:102D0000087039491D98087038491E9808701BB022
:102D100000BD0FB597B019980D9000EBD070C0F3BF
:102D20004F00159015991798401A80B21490159974
:102D30001898401A80B213900621159890FBF1F074
:102D4000C0B2002101230D90CDE901310391009023
:102D500015984000183080B20C901598400018303B
:102D600080B20B9018991598081A0C3880B20A9006
:102D700015991798401A0C3880B209900AA90EC903
:102D800001F09DFA4FF6FF73159ADDE9170100F087
:102D900066FF00200E90D4E00E9808F099F90F4AD3
:102DA0000F4BCDE9000108F0A7F9CDE9020107F0CA
:102DB000C3FECDE906011598001F039008F071F9D4
:102DC000CDE90401DDE9062308F096F9CDE90A0111
:102DD000DDE91401084407900AE00000D5EB7BF31D
:102DE000E9CEBA3F3200002033000020340000203A
:102DF00008F057F9CDE90801DDE90A2307F0ECFEF8
:102E0000CDE90C0108F020F980B212900E9808F07C
:102E10005FF9FE4AFE4BCDE9000108F06DF9CDE9FE
:102E2000020107F03BFECDE906011598001F039053
:102E300008F037F9CDE90401DDE9062308F05CF973
:102E4000CDE90A01159913980844079008F029F96B
:102E5000CDE90801DDE90A2308F058FACDE90C01B3
:102E600008F0F2F880B210900E9808F031F9E74AB5
:102E7000E74BCDE9000108F03FF9CDE9020107F089
:102E80005BFECDE9060115991A98081A039008F01F
:102E900008F9CDE90401DDE9062308F02DF9CDE9B3
:102EA0000A01DDE914010844079008F0FAF8CDE9B9
:102EB0000801DDE90A2307F08FFECDE90C0108F0D7
:102EC000C3F880B211900E9808F002F9CF4AD04BA7
:102ED000CDE9000108F010F9CDE9020107F0DEFDAF
:102EE000CDE906011A991598401A039008F0D9F80F
:102EF000CDE90401DDE9062308F0FEF8CDE90A0179
:102F0000159913980844079008F0CBF8CDE908010B
:102F1000DDE90A2308F0FAF9CDE90C0108F094F88C
:102F200080B20F9047F297400021CDE90010DDE913
:102F30000F31DDE9112000F06FFF0E98401C80B2C8
:102F40000E900E983C28FFF627AF00200E90C8E0A8
:102F50000E9808F0BDF8AF4AAF4BCDE9000108F07C
:102F6000CBF8CDE9020107F0E7FDCDE906011598A0
:102F7000401F039008F095F8CDE90401DDE9062330
:102F800008F0BAF8CDE90A01DDE914100844079009
:102F900008F087F8CDE90801DDE90A2307F01CFEF7
:102FA000CDE90C0108F050F880B212900E9808F0AC
:102FB0008FF8984A984BCDE9000108F09DF8CDE9CB
:102FC000020107F06BFDCDE906011598401F039043
:102FD00008F067F8CDE90401DDE9062308F08CF874
:102FE000CDE90A01139915980844079008F059F89B
:102FF000CDE90801DDE90A2308F088F9CDE90C01E3
:1030000008F022F880B210900E9808F061F8814A1A
:10301000814BCDE9000108F06FF8CDE9020107F01E
:103020008BFDCDE906011A991598401A039008F016
:1030300038F8CDE90401DDE9062308F05DF8CDE9B3
:103040000A01DDE914010844079008F02AF8CDE9E7
:103050000801DDE90A2307F0BFFDCDE90C0107F007
:10306000F3FF80B211900E9808F032F8694A6A4B6B
:10307000CDE9000108F040F8CDE9020107F00EFDAE
:10308000CDE906011A991598401A039008F009F83D
:10309000CDE90401DDE9062308F02EF8CDE90A01A7
:1030A000159913980844079007F0FBFFCDE9080134
:1030B000DDE90A2308F02AF9CDE90C0107F0C4FF85
:1030C00080B20F9047F6EF000221CDE90010DDE954
:1030D0000F31DDE9112000F09FFE0E98401C80B2F8
:1030E0000E900E980C28FFF633AF00200E9027E1CB
:1030F0000E9807F0EDFF494A494BCDE9000107F072
:10310000FBFFCDE9020107F017FDCDE90601159897
:10311000401F039007F0C5FFCDE90401DDE9062358
:1031200007F0EAFFCDE90A01DDE914010844079040
:1031300007F0B7FFCDE90801DDE90A2307F04CFDF0
:10314000CDE90C0107F080FF80B212900E9807F0D5
:10315000BFFF324A324BCDE9000107F0CDFFCDE988
:10316000020107F09BFCCDE906011598401F039072
:1031700007F097FFCDE90401DDE9062307F0BCFF66
:10318000CDE90A01159913980844079007F089FFC3
:10319000CDE90801DDE90A2308F0B8F8CDE90C0112
:1031A00007F052FF80B210900E9807F091FF1B4A73
:1031B0001B4BCDE9000107F09FFFCDE9020107F0AD
:1031C000BBFCCDE906011A991598401AC01E039060
:1031D00007F067FFCDE90401DDE9062307F08CFF66
:1031E000CDE90A01DDE914100844079007F059FF02
:1031F000CDE90801DDE90A2307F0EEFCCDE90C0179
:1032000007F022FF80B211900E980BE0D5EB7BF314
:10321000E9CEBA3F65732D3852C1E03F182D4454B2
:10322000FB21F93F07F054FFFD4AFE4BCDE90001B9
:1032300007F062FFCDE9020107F030FCCDE906019D
:103240001A991598401AC01E039007F02AFFCDE97D
:103250000401DDE9062307F04FFFCDE90A011599C6
:1032600013980844079007F01CFFCDE90801DDE939
:103270000A2308F04BF8CDE90C0107F0E5FE80B217
:103280000F900E9878B9102000900F98401D80B2D2
:103290000D901198401F80B202230C220C900D99C2
:1032A00006F017FE3DE00E98012813D11020009083
:1032B0000E9800EB40000D900F980A3880B20C90E9
:1032C0001198143880B202230B90DDE90C1206F03D
:1032D00000FE26E00E98022813D1102000900E98D0
:1032E00000EB40000D900F98143880B20C901198AC
:1032F0000A3880B202230B90DDE90C1206F0E9FDDA
:103300000FE0102000900E9800EB40000D900F98F9
:103310000A3880B202230C9001460D9A119806F0EB
:10332000D8FD4FF6E0700221CDE90010DDE90F3144
:10333000DDE9112000F070FD0E98401C80B20E9067
:103340000E980428FFF6D4AE1A980D9000EBD070BA
:10335000C0F34F004BF2222302460C90DDE9170127
:1033600000F07DFC1BB000BD2DE9F0478CB0054698
:103370000E4617469846DDE9149A00243022AA49E1
:10338000684606F05BFFA948C0F80080C0F80490CA
:10339000C0F808A047610661C56000BF06E05DF89F
:1033A0002410A248183040F82410641C0C2CF6DDC0
:1033B0009E49C868C11700EB91718910A0EB81018B
:1033C00039B99A49C968642291FBF2F302FB1311DF
:1033D00041B99649C9684FF4C87291FBF2F302FBF8
:1033E000131119B91D219148C16102E01C218F48B8
:1033F000C1610CB0BDE8F0872DE9FE4304460D46DF
:1034000016461F46DDE90A893B46324629462046D4
:10341000CDE90089FFF7A8FF0823C82278210846D4
:10342000FFF777FC8148007A804909797F4A127852
:103430000823CDE900210290C82278210846FEF732
:1034400009FFFEF79FFEBDE8FE83794880680028EB
:103450005ED17649C868C11700EB91718910A0EB65
:10346000810139B97149C968642291FBF2F302FB09
:10347000131141B96D49C9684FF4C87291FBF2F359
:1034800002FB131119B91D216848C16102E01C211A
:103490006648C161654880683B2806DD00206349B5
:1034A000886008464068401C4860604840683B2887
:1034B00006DD00205D49486008460068401C086041
:1034C0005A480068172806DD002058490860084659
:1034D0004069401C4861554842690069401E534993
:1034E000183151F82000824206DD01201839486168
:1034F00008460069401C08614C4800690C287ADDC8
:1035000001204A4908610846C068401CC86072E052
:103510004649C868C11700EB91718910A0EB810181
:1035200039B94249C968642291FBF2F302FB1311D5
:1035300041B93E49C9684FF4C87291FBF2F302FBEE
:10354000131119B91D213948C16102E01C21374806
:10355000C16136488068002802DA3B203349886020
:1035600032484068002802DA3B20304948602F4842
:103570000068002802DA17202C4908602B484069AF
:10358000012808DA29480069401E2849183151F8F5
:1035900020001839486125480069012802DA0C200A
:1035A00022490861214880683B2802DD00201F492C
:1035B00088601E4840683B2802DD00201B494860A7
:1035C0001A480068172802DD0020184908601748CB
:1035D00000690C2802DD0120144908611348426982
:1035E0000069401E1149183151F82000824202DD65
:1035F00001201839486170470EB50D4880680128D0
:103600007ED10B484068E0B94FF6FF700949088049
:103610001820009005480423F021C26832200BE0F6
:10362000182D4454FB21F93F18BA00084800002027
:103630003C0000203600002006F04BFC00208749AB
:1036400008808748406801280FD14FF6FF708349F2
:1036500008801820009083480223F021026973201B
:1036600006F037FC00207D4908807D48406802282C
:103670000FD14FF6FF7079490880182000907948E3
:103680000223F0214269A02006F023FC00207349A8
:10369000088073484068032810D14FF6FF706F49C7
:1036A0000880182000906F4802234FF48C71026844
:1036B000322006F00EFC0020684908806848406807
:1036C000042810D14FF6FF7064490880182000903C
:1036D000644802234FF48C7142685A2006F0F9FBCB
:1036E00000205E4908805E484068052812D14FF6E8
:1036F000FF705A490880182000905A48022300E0C1
:103700000CE04FF48C718268822006F0E2FB00200E
:10371000524908804FF4C870FEF767FC50480068B3
:10372000012844D100204E4908600846406830B95D
:103730004C48C068401C4B49C860FFF786FE4848AB
:103740004068012806D147480069401C4549086186
:10375000FFF77BFE42484068022806D14148406995
:10376000401C40494861FFF770FE3D48406803280F
:1037700006D13C480068401C3A490860FFF765FEE6
:1037800037484068042806D136484068401C35490F
:103790004860FFF75AFE32484068052848D1314852
:1037A0008068401C2F498860FFF74FFE40E02C489E
:1037B000006802283CD1002029490860084640687A
:1037C000062834D2DFE800F0030B131B232B254817
:1037D000C068401E2349C860FFF737FE27E0214834
:1037E0000069401E1F490861FFF72FFE1FE01D48BA
:1037F0004069401E1B494861FFF727FE17E0194842
:103800000068401E17490860FFF71FFE0FE01548CB
:103810004068401E13494860FFF717FE07E0114853
:103820008068401E0F498860FFF70FFE00BF00BF91
:10383000FEF7A8FC0B48007A0A490979094A127870
:103840000823CDE900210290C82278210846FEF71E
:1038500001FD4FF4C870FEF7C8FB0EBD3600002016
:103860003C000020480000200EB501210846FEF76C
:1038700017F900F075FF05210220FDF75DF8202003
:10388000019000208DF808000C208DF8090001201F
:103890008DF80A0001A8FCF759FE0F210020FDF762
:1038A0004BF84FF40040019000208DF808000C20E8
:1038B0008DF8090001208DF80A0001A8FCF746FEEA
:1038C00000210846FDF738F80120019000208DF80E
:1038D000080008208DF8090001208DF80A0001A8D1
:1038E000FCF734FE06208DF8000002208DF8010060
:1038F0008DF8020001208DF803006846FCF7AFFD4B
:1039000017208DF8000002208DF8010001208DF8AD
:1039100002008DF803006846FCF7A1FD28208DF811
:10392000000002208DF8010000208DF80200012027
:103930008DF803006846FCF792FD0EBD10B50A2015
:10394000FEF753FB01211F48FCF773FF012812D13A
:103950001D484068052805D100201B498860401E8D
:10396000486008E001201849886008464068401C0B
:103970004860032008600120FCF75FFE10BD10B511
:103980000A20FEF732FB20211048FCF752FF10B945
:1039900001200D4908602020FCF74FFE10BD10B536
:1039A0000A20FEF722FB4FF400410648FCF741FFD6
:1039B00010B90220044908604FF40040FCF73DFEB6
:1039C00010BD0000000801403C0000200010014034
:1039D0002DE9F04105460E461446FE48078804804E
:1039E0003146284601F038FDFA480780BDE8F081ED
:1039F000F948FA494860FA488860FA48C860FA48C5
:103A00000861FA4800880880F9480088C882F848A8
:103A100040880883F6480088F02804D110200875F3
:103A20001420487514E0F2480088B0F5A07F05D155
:103A30001020EA4908751820487509E0EC4800880C
:103A4000B0F5F07F04D11820E449087520204875AE
:103A50007047F0B502460B460120002108E0002720
:103A60000646A6FB025C01FB02C400FB0741284698
:103A70001C00A3F10105EBB2F1D1F0BD02468A4270
:103A800001D9501A7047881AFCE770B5034643EA1B
:103A90000340D84E00EA060441EA014000EA060568
:103AA000281B504304EB501000EA060545EA154078
:103AB00080B270BD2DE9F84F06460F4690469946F4
:103AC000DDE90AAB00241DE0002517E07B1999B25F
:103AD000331998B2C14B5A68904700905A465146E4
:103AE0000098FFF7D2FF00907A1991B2321990B284
:103AF000BA4A9368009A9847681C85B24D45E5DB41
:103B0000601C84B24445DFDBBDE8F88F10B5014688
:103B1000CA0CC1F38523C1F3C404D00240EA4310A8
:103B2000204380B210BD2DE9F04704460D46924671
:103B3000012C03DB601E1FFA80F800E0A046012D77
:103B400003DB681E1FFA80F900E0A9464E460EE02E
:103B5000474607E0A14852463146836838469847B1
:103B6000781C87B2A01C8742F4DB701C86B2A81CAC
:103B70008642EDDBBDE8F0872DE9FF4F85B0814639
:103B80008A460020039083460798A0EB0905089811
:103B9000A0EB0A06CDF80890CDF804A0002D01DDB9
:103BA000012705E00DB9002702E04FF0FF376D4215
:103BB000002E02DD4FF0010806E016B94FF00008B4
:103BC00002E04FF0FF387642B54201DD2C4600E0BE
:103BD0003446002004901FE0019A91B2029A90B2FC
:103BE0007E4A9368129A9847039828440390B344F6
:103BF0000398A04205DD0398001B03900298384407
:103C00000290A34504DDABEB040B01984044019006
:103C10000498401C80B20490611C04988842DBDD4B
:103C200009B0BDE8F08FF8B504460D4616461F46AC
:103C30003EB16A48C08AA04203DB6848008BA842B4
:103C400000DAF8BDA019401E82B2644800972B46E6
:103C50002946D0F80CC02046E04700BFF1E72DE927
:103C6000F05F0746884616469A4640F2C3207043E6
:103C70004FF47A71B0FBF1F000F1010906FB06F098
:103C800000EB560B344671040A0CB91B88B253463C
:103C90004146FFF7C8FF012535E005FB05F004FBB1
:103CA000040058451AD94C4517D96B1E5B041A0CF1
:103CB00008EB040399B27B1B5B1C98B25346FFF7D9
:103CC000B2FF6B1E5B041A0CA8EB040399B27B1BBA
:103CD0005B1C98B25346FFF7A6FF641E63041A0CE0
:103CE00008EB050399B23B1B98B25346FFF79BFFC5
:103CF00063041A0CA8EB050399B23B1B98B2534618
:103D0000FFF791FF6D1C4D45C7D9BDE8F09F2DE928
:103D1000FF4F85B080468946129F00200390029095
:103D2000B84507DB0798B84204DBB94502DB0898C1
:103D3000B84202DA09B0BDE8F08F37B92748836886
:103D400049464046139A9847F4E70798A0EB0804C1
:103D50000898A0EB0905CDF80480CDF80090002C60
:103D600002DD4FF0010A06E014B94FF0000A02E04C
:103D70004FF0FF3A6442002D02DD4FF0010B06E0E8
:103D800015B94FF0000B02E04FF0FF3B6D42AC4223
:103D900001DD264600E02E460020049036E0009A21
:103DA00091B2019A90B23A46139BFFF758FF0398DD
:103DB000204403900298284402900398B04205DD05
:103DC0000398801B03900198504401900298B042E0
:103DD00018DD11E036000020434D00085801002096
:103DE0008D540008ED9A0008B59B000838000020AB
:103DF000740100201FF8E0070298801B02900098D1
:103E0000584400900498401C80B20490711C04989F
:103E10008842C4DD00BF8DE72DE9FF4F83B0DDF898
:103E200040B000200190009003990598471A04992A
:103E30000698A0EB0108039C049D002F02DD4FF0C3
:103E4000010906E017B94FF0000902E04FF0FF3911
:103E50007F42B8F1000F02DD4FF0010A09E0B8F12E
:103E6000000F02D14FF0000A03E04FF0FF3AC8F113
:103E70000008474501DD3E4600E04646002002902E
:103E800076E0BBF1000F04D1A9B2A0B2119A01F003
:103E9000FDFABBF1010F17D1A9B2A0B2119A01F03E
:103EA000F5FAA9B2621C90B2119A01F0EFFA6A1CFD
:103EB00091B2A0B2119A01F0E9FA6A1C91B2621CA7
:103EC00090B2119A01F0E2FABBF1020F38D1A9B217
:103ED000A0B2119A01F0DAFAA9B2621C90B2119A5A
:103EE00001F0D4FA6A1C91B2A0B2119A01F0CEFA94
:103EF0006A1C91B2621C90B2119A01F0C7FA6A1C56
:103F000091B2621E90B2119A01F0C0FA6A1E91B28B
:103F1000621C90B2119A01F0B9FA6A1E91B2621E47
:103F200090B2119A01F0B2FAA9B2621E90B2119A3F
:103F300001F0ACFA6A1E91B2A0B2119A01F0A6FA91
:103F40000198384401900098404400900198B04294
:103F500003DD0198801B01904C440098B04203DDC2
:103F60000098801B009055440298401C80B202903B
:103F7000711C0298884284DD07B0BDE8F08FF8B567
:103F800004460D4616461F463EB1FE48C08AA04272
:103F900003DBFC48008BA84200DAF8BDA819401EDC
:103FA00083B2F848009722462946D0F80CC0204634
:103FB000E04700BFF1E72DE9F04707468846154680
:103FC0001E46DDE9089A06B10DB9BDE8F0870AF092
:103FD000010078B100240AE039F81430711E8AB269
:103FE000391988B24146FFF7CAFF601C84B2AC425F
:103FF000F2DB0FE000240BE039F81430681E82B2C7
:1040000008EB040081B23846FFF70DFE601C84B255
:10401000B442F1DB00BFD8E72DE9F84F0446002099
:10402000C4F30745C4F30726E7B2C5EB114B0FFAFB
:104030008BFAC1F3072BABEB060E01F0FF0BABEBDA
:10404000070BCDF800B000BF28E00AFB00FB9BFB8C
:10405000F3FBAB441FFA8BFC0EFB00FB9BFBF3FB5B
:10406000B3441FFA8BF8DDF800B00BFB00FB9BFBA1
:10407000F3FBBB441FFA8BF94FEAEC0C4FEAA8089C
:104080004FEAE9094FEACC2B4BEA481B4BEA090BF4
:1040900022F810B000F1010B1FFA8BF09842D4DB2C
:1040A000BDE8F88F2DE9F04105460E4617461C463F
:1040B000DDF8188043463A4631462846FFF7B3FDFF
:1040C0003019401E81B243463A462846FFF7ABFD01
:1040D0004346224631462846FFF751FFE919491E5B
:1040E00088B2434622463146FFF749FFBDE8F081DA
:1040F0002DE9F05F06460F4690469946DDE90B5BD9
:104100000A9C444511DCB4420FDB4D450DDCBD4239
:104110000BDB9D48B0F800A0A0F800B0294620466F
:1041200001F09AF99848A0F800A0BDE8F09F2DE9A9
:10413000FF4F83B081468A46934610AC94E8F00165
:10414000E81B80B2A11989B2CDE9010800915A4655
:1041500051464846069BFFF7CBFFA81B80B2E119EA
:1041600089B2CDE9010800915A4651464846069B5E
:10417000FFF7BEFFA81980B2E11989B2CDE90108A5
:1041800000915A4651464846069BFFF7B1FFE81991
:1041900080B2A11989B2CDE9010800915A46514671
:1041A0004846069BFFF7A4FFE81980B2A11B89B21D
:1041B000CDE9010800915A4651464846069BFFF753
:1041C00097FFA81980B2E11B89B2CDE901080091DF
:1041D0005A4651464846069BFFF78AFFA81B80B205
:1041E000E11B89B2CDE9010800915A465146484683
:1041F000069BFFF77DFFE81B80B2A11B89B2CDE9CA
:10420000010800915A4651464846069BFFF770FF49
:1042100007B0BDE8F08F2DE9FF4F85B0DDE914ABA5
:10422000DDE91289002455460320A0EB4A0725E06A
:10423000169870B1264609E0CDE9036BCDE90089F7
:10424000029405A80FC8FFF772FF761CAE42F3DD9B
:1042500008E0CDE9035BCDE90089029405A80FC809
:10426000FFF765FF641C002F03DAA000801D0744E0
:1042700004E0601B80000A3007446D1EAC42D7DDAD
:1042800009B0BDE8F08F2DE9F84306460F46144605
:104290001D46DDF8208004B10DB9BDE8F88378191A
:1042A000401E83B23019401E82B23648CDF80080DD
:1042B0003946D0F80CC03046E04700BFEDE72DE9A5
:1042C000F04F85B007460E4690469946DDE910ABA3
:1042D0000E9C0025484609EBD0714910A9EB41011D
:1042E00011B1401C85B200E04D460F98002877D0F0
:1042F00005EBD571C1F34F03022101FB14818AB292
:10430000391988B23146CDF800A00495FFF7BBFFFC
:1043100005EBD57CCCF34F03049505EBD57C06EB80
:104320006C0C1FFA8CF14FF0020C0CFB148C1FFA72
:104330008CF207EB040C1FFA8CF0CDF800B003955B
:10434000FFF7A1FF05EBD570C4EB600083B2301915
:1043500081B222463846CDF800A00495FFF793FFBE
:1043600005EBD570C4EB600083B2049505EBD57006
:1043700006EB600081B222463846CDF800B00395C6
:1043800004E000005801002036000020FFF77BFF0A
:1043900005EBD572C4EB620293B2321991B207EB0E
:1043A0000802121B90B22246CDF800A00495FFF738
:1043B0006AFF05EBD572C4EB620293B2049505EB7C
:1043C000D57206EB620291B207EB0802121B90B2A3
:1043D0002246CDF800B00395FFF755FF54E0FFE704
:1043E000022101FB14818AB2391988B25346314641
:1043F000FFF719FC022303FB14839AB273195B1EA7
:1044000099B23B1998B25B46FFF70DFC05EBD570EE
:10441000C4EB600082B2301981B25346384604952D
:10442000FFF7ADFD05EBD570C4EB600082B20495DB
:1044300005EBD57006EB600081B25B46384603950C
:10444000FFF79DFD05EBD573C4EB63039AB23319F7
:1044500099B207EB08035B1E98B253460495FFF729
:104460008EFD05EBD573C4EB63039AB2049505EB9F
:10447000D57306EB630399B207EB08035B1E98B292
:104480005B460395FFF77BFD311989B20F98CDE9A3
:10449000024A01910490381980B20090301983B219
:1044A000381982B231463846FFF7B5FE7119091B3B
:1044B000491E89B20F98CDE9024B01910490381939
:1044C00080B200907019401E83B2381982B2701900
:1044D000001B81B23846FFF79EFE311989B20F9852
:1044E000CDE9024A0191049007EB0800001B401E31
:1044F00080B231198BB207EB08018AB207EB0801D1
:10450000091B009088B23146FFF785FE7119091B1F
:10451000491E89B20F98CDE9024B0191049007EB37
:104520000800001B401E80B206EB050CACF1010C2C
:104530001FFA8CF307EB080C1FFA8CF206EB050C44
:10454000ACEB040C1FFA8CF107EB080CACEB040C81
:1045500000901FFA8CF0FFF75EFE05B0BDE8F08F0B
:104560002DE9F04F87B005460E4691469846DDF896
:1045700040B0CDF80C90CDF80880A94501DCB045DD
:1045800002DD07B0BDE8F08F03984043029948432D
:10459000414303984043029A504301EB5000069078
:1045A0004F46BA4600247DE0444501D100271BE078
:1045B00009FB09F004FB04F14843049001E0781E74
:1045C00087B208FB08F007FB07F1049A00FB012003
:1045D0000590002F05DDDDE90501884201D90120A4
:1045E00000E000200028EAD1F4B3A6EB040C1FFA87
:1045F0008CF3A5EB070C1FFA8CF2A6EB040C0CF164
:10460000010C1FFA8CF1A5EB0A0C1FFA8CF0CDF807
:1046100000B0FFF7B1FA06EB040C1FFA8CF3A5EB20
:10462000070C1FFA8CF206EB040CACF1010C1FFA1C
:104630008CF1A5EB0A0C1FFA8CF0CDF800B0FFF757
:104640009BFAA6EB040C1FFA8CF305EB070C1FFA80
:104650008CF2A6EB040C0CF1010C1FFA8CF105EBAB
:104660000A0C1FFA8CF000E019E0CDF800B0FFF75B
:1046700083FA06EB040C1FFA8CF305EB070C1FFA08
:104680008CF206EB040CACF1010C1FFA8CF105EB7B
:104690000A0C1FFA8CF0CDF800B0FFF76DFABA469D
:1046A000601C84B244457FF77FAF00BF69E72DE906
:1046B000FE4F8046894616461C46B246A3460AFB74
:1046C0000AF000FB0BF000FB0BF10AFB0AF000FB09
:1046D0000BF001EB500002903546002734E006FB5A
:1046E00006F007FB07F14843009001E0681E85B221
:1046F00004FB04F005FB05F1009A00FB012001908A
:10470000002D05DDDDE90101884201D9012000E02D
:1047100000200028EAD16B041A0C09EB070399B2B8
:10472000A8EB050398B20C9BFFF77DFA57B16B0419
:104730001A0CA9EB070399B2A8EB050398B20C9BDE
:10474000FFF771FA781C87B2A742C8DDBDE8FE8F7B
:104750004FF0FF303E494860086000208860704795
:1047600008B501211420FDF79BF901213948FCF718
:104770009EF84FF40040ADF8000048208DF803008B
:1047800069463548FBF7C2FF2020ADF800004820FD
:104790008DF8030069463148FBF7B8FF0120ADF8FA
:1047A000000028208DF8030069462B48FBF7AEFF78
:1047B000FFF7CEFF08BD10B5044614B1012028490B
:1047C00008702748007868B320212448FCF731F8A6
:1047D00058B14FF400412048FCF72BF828B10121D3
:1047E0001D48FCF726F801281CD10A20FDF7FDFB27
:1047F00000201B49087020211848FCF71AF808B956
:10480000012010BD4FF400411348FCF712F808B91D
:104810000220F6E701211048FCF70BF8012815D11A
:104820000320EEE720210D48FCF703F801280DD105
:10483000C1030948FBF7FDFF012807D10121064804
:10484000FBF7F7FF10B90120054908700020D8E7F1
:104850003C00002000023000000801400010014030
:10486000350000204FF48071FD4A516149005161CB
:10487000FC49086080215161116189001161704714
:104880004FF48071F64A116149005161F5490860A1
:1048900080215161116189001161704710B54FF09D
:1048A0008830F0490C390860091D08600020ED4986
:1048B00008608815EA490861400048614020486165
:1048C000E948808848F68911884202D10220FDF724
:1048D00068FBE448001F006884B24020E04908619A
:1048E000C00008614FF03330DE490C390860091D03
:1048F00008604FF6FF70DB490860204610BD10B518
:1049000004460B462046FFF7ADFF4FF48070D449B4
:10491000086140004861D348036080204861086115
:104920008000086110BD10B504462046FFF79AFFCD
:10493000FFF7B4FF10BD00B5CB490889FFF792FF20
:1049400000BD4FF48071C64A116149005161C549EB
:10495000086080215161116189001161704730B593
:10496000014601F01F04C1F34513CA0AE50205EB35
:1049700043151544A8B230BD00BF0100A0F10102EB
:10498000D0B2FAD1704730B504460D46B64880889B
:1049900049F24131884205D0B348808845F2103150
:1049A000884240D1B0494889FFF75CFF4FF48070DE
:1049B000AB490861400048612012AA490860802084
:1049C000A749486108618000086140100861400003
:1049D0004861E0B2A34908608020A14948610861AC
:1049E00080000861A0498889FFF73CFF4FF4807080
:1049F0009B4908614000486128129A49086080205C
:104A000097494861086180000861401008614000D2
:104A10004861E8B293490860802091494861086183
:104A2000800008618CE19048808846F60401884245
:104A300049D18D488079012804D18B480088401ED7
:104A4000001B84B288494889FFF70CFF4FF480703F
:104A50008349086140004861201282490860802033
:104A60007F4948610861800008614010086140008A
:104A70004861E0B27B49086080207949486108615B
:104A80008000086178498889FFF7ECFE4FF4807058
:104A9000734908614000486128127249086080200B
:104AA0006F4948610861800008614010086140005A
:104AB0004861E8B26B490860802069494861086133
:104AC000800008613CE16848808841F663118842B3
:104AD0007ED16548807900283FD163480088401E18
:104AE000001B84B260494889FFF7BCFE4FF4807018
:104AF0005B4908614000486100205A4908608020F5
:104B00005749486108618000086140100861400011
:104B1000486100205349086080205149486108617C
:104B200080000861401008614000486120124D4932
:104B3000086080204A49486108618000086140108F
:104B4000086140004861E0B246490860802044495D
:104B5000486108618000086141E043494889FFF7E6
:104B600081FE4FF480703E49086140004861201288
:104B70003C49086080203A4948610861800008612A
:104B80004010086140004861E0B23649086080206A
:104B900033494861086180000861401008614000A5
:104BA000486131480088401E00122E49086080206C
:104BB0002B4948610861800008614010086140008D
:104BC000486129480078401EC0B22649086000E0CC
:104BD0004CE0802022494861086180000861224938
:104BE0008889FFF73FFE4FF480701D49086140003F
:104BF000486128121B4908608020194948610861F2
:104C0000800008614010086140004861E8B2154921
:104C100008608020124948610861800008614010E6
:104C200008614000486110484088401E00120D494C
:104C3000086080200A4948610861800008614010CE
:104C400008614000486108488078401EC0B20549AC
:104C500008608020024948610861800008616FE0B7
:104C6000001001400C0C014074010020F7488088BE
:104C700045F21051884250D1F4494889FFF7F2FDBE
:104C80004FF48070F2490861400048612012F149F8
:104C900008608020EE494861086180000861EB49A6
:104CA0004989491C88B2FFF7DDFD4FF48070E8495F
:104CB000086140004861E0B2E64908608020E449AC
:104CC0004861086180000861E0498889FFF7CAFDF2
:104CD0004FF48070DE490861400048612812DD49C8
:104CE00008608020DA494861086180000861D7497E
:104CF0008989491C88B2FFF7B5FD4FF48070D4490B
:104D0000086140004861E8B2D24908608020D0497B
:104D1000486108618000086112E0CC488079012870
:104D200004D1CA480088401E001B84B2C749488984
:104D30002146FFF7E4FDC54988892946FFF7DFFDD5
:104D400030BD2DE9F04105460E46C0480088A84216
:104D500003DDBE484088B04202DC0020BDE8F0819F
:104D600031462846FFF70FFEB848808849F24131A6
:104D7000884211D0B548808846F6040188420BD09D
:104D8000B248808845F21031884205D0AF4880880B
:104D900041F66311884203D12E20FFF763FD0DE039
:104DA000AA48808845F21051884204D14FF4385007
:104DB000FFF758FD02E02220FFF754FD4FF0883046
:104DC000A4490C390860091D08604FF6FF70A1491D
:104DD000086088159E49086140004861402048618C
:104DE0000220FFF7C9FD9B48001F006884B24020E5
:104DF000974908619548808841F66311884210D12F
:104E00004FF40070924908614FF0333091490C39EA
:104E10000860091D08604FF6FF708E490860204643
:104E20009CE740208A4948610220FFF7A5FD894898
:104E3000001F006884B2402085490861834880884B
:104E400049F2413188420BD08048808845F21031C8
:104E5000884205D07D48808845F21051884213D1A0
:104E600040207B4948610220FFF786FD7948001FFA
:104E700000681FFA80F8402075490861E7B24FF6D4
:104E8000FF7000EA07270DE07048808846F60401AD
:104E9000884207D140206E49486108616D48001F73
:104EA000006884B24FF40070694908614FF03330F4
:104EB00068490C390860091D08604FF6FF706549A4
:104EC00008606248808849F22531884216D05F48E0
:104ED000808844F23551884210D05C488088091F90
:104EE00088420BD05948808848F68911884205D0FD
:104EF000564880884BF20551884201D120462DE763
:104F00005248808849F2413188420BD04F4880880E
:104F100045F21031884205D04C48808845F2105146
:104F2000884207D1E012C002B91240EA411040EABB
:104F3000E82013E72046FFF712FD0FE700B54348CE
:104F4000808849F24131884211D04048808846F635
:104F5000040188420BD03D48808845F210318842D8
:104F600005D03A48808841F66311884203D1292050
:104F7000FFF778FC0FE03548808845F210518842F1
:104F800004D14FF42450FFF76DFC04E040F273119C
:104F90000720FFF7B4FC00BD00B52C48808849F21B
:104FA0004131884211D02948808846F60401884260
:104FB0000BD02648808845F21031884205D023481E
:104FC000808841F66311884203D12820FFF74AFC0C
:104FD0000EE01E48808845F21051884204D14FF4FB
:104FE0002050FFF73FFC03E000210720FFF787FC7C
:104FF00000BDF0B50546002400271448807901283B
:105000000BD11248808846F60401884205D00F482B
:10501000808841F66311884208D10C48807920BB12
:105020000A48808841F6631188421ED1082D1BD2A0
:10503000DFE805F00406080A12141618062513E026
:10504000072511E004250FE005250DE0740100207F
:10505000001001400C0C0140012505E0002503E093
:10506000032501E0022500BF00BFF848808849F20F
:105070004131884217D0F548808846F604018842BD
:1050800011D0F248808845F2103188420BD0EF48A9
:10509000808845F21051884205D0EC48808841F65E
:1050A000631188427ED1082D1CD2DFE805F004068A
:1050B000090C0F12151800BF14E044F0800411E031
:1050C00044F040040EE044F0C0040BE044F020043F
:1050D00008E044F0600405E044F0A00402E044F07D
:1050E000E00400BF00BFD948808845F210518842D3
:1050F00002D14FF4585700E03627D448808845F253
:10510000103188420DD0D148808845F21051884234
:1051100007D0CE48808841F66311884201D044F020
:105120000804CA48808846F60401884201D144F048
:10513000020421463846FFF7E2FBC448808841F666
:10514000631188421DD004F0200068B1BF48008878
:10515000BE494988884214DABC4806884088BB4961
:105160000880084646800CE0B8480088B74949885E
:10517000884206DDB54806884088B449088008465C
:105180004680B248808845F2105188427ED1AF49AE
:105190004889FFF767FB4FF48070AD490861400014
:1051A000486100E029E10020AA4908608020A84960
:1051B0004861086180000861A4494989491C88B296
:1051C000FFF750FB4FF48070A1490861400048612F
:1051D0000020A049086080209D4948610861800046
:1051E00008619A494989891C88B2FFF73BFB4FF453
:1051F0008070974908614000486194480088401ECB
:10520000001294490860802091494861086180003B
:1052100008618E494989C91C88B2FFF723FB4FF406
:1052200080708B4908614000486188480078401EC2
:10523000C0B28849086080208549486108618000C3
:10524000086182498889FFF70DFB4FF4807080491F
:1052500008614000486100207E49086080207C4948
:10526000486108618000086178498989491C88B2D1
:10527000FFF7F8FA4FF48070754908614000486103
:105280000020744908608020714900E034E04861E2
:105290000861800008616D498989891C88B2FFF71F
:1052A000E1FA4FF480706A4908614000486167483C
:1052B0004088401E001267490860802064494861A8
:1052C00008618000086161498989C91C88B2FFF7BB
:1052D000C9FA4FF480705E490861400048615B483C
:1052E0008078401EC0B25B49086080205849486100
:1052F000086180000861A7E054494889FFF7B2FAC5
:105300004FF48070524908614000486100205149C3
:10531000086080204E4948610861800008614010A3
:1053200008614000486100204A49086080204849DF
:1053300048610861800008614010086140004861D0
:1053400042480088401E00124249086080204049BF
:1053500048610861800008614010086140004861B0
:105360003A480078401EC0B23A4908608020384967
:10537000486108618000086134498889FFF772FA42
:105380004FF4807032490861400048610020314983
:10539000086080202E494861086180000861401043
:1053A00008614000486100202A490860802028499F
:1053B0004861086180000861401008614000486150
:1053C00022484088401E001222490860802020495F
:1053D0004861086180000861401008614000486130
:1053E0001A488078401EC0B21A49086080201849C7
:1053F000486108618000086126E0082D1CD2DFE8C2
:1054000005F004070A0D0F12151844F0300413E0DC
:1054100044F0100410E044F020040DE000BF0BE065
:1054200044F0380408E044F0280405E044F018048F
:1054300002E044F0080400BF00BF032744F4805496
:1054400021463846FFF75BFAF0BD000074010020EA
:10545000001001400C0C014030B504460D462946B1
:105460002046FFF790FAFFF766FA4FF48070FE4986
:10547000086140004861FD480088FD4908608020BF
:10548000F949486108618000086130BD70B5044683
:105490000D461646F748808849F24131884205D0CA
:1054A000F448808845F21031884240D1F14948895A
:1054B000FFF7D8F94FF48070EB490861400048616C
:1054C0002012EB4908608020E749486108618000AC
:1054D00008614010086140004861E0B2E44908609A
:1054E0008020E1494861086180000861E1498889BC
:1054F000FFF7B8F94FF48070DB490861400048615C
:105500002812DB4908608020D74948610861800083
:1055100008614010086140004861E8B2D449086061
:105520008020D14948610861800008613DE1D1488F
:10553000808845F21051884250D1CE494889FFF702
:1055400091F94FF48070C849086140004861201209
:10555000C74908608020C44948610861800008612B
:10556000C4494989491C88B2FFF77CF94FF480701F
:10557000BD49086140004861E0B2BD490860802033
:10558000B9494861086180000861BA498889FFF714
:1055900069F94FF48070B4490861400048612812ED
:1055A000B34908608020B049486108618000086103
:1055B000B0498989491C88B2FFF754F94FF48070CB
:1055C000A949086140004861E8B2A9490860802003
:1055D000A5494861086180000861E6E0A548808827
:1055E00041F6631188427DD1A248807920B9A14853
:1055F0000088401E001B84B29E494889FFF732F99B
:105600004FF4807098490861400048612012984921
:10561000086080209449486108618000086140105A
:10562000086140004861E0B29149086080208E49DD
:1056300048610861800008614010086140004861CD
:1056400020128B49086080208749486108618000EA
:1056500008614010086140004861E0B28449086078
:1056600080208149486108618000086181498889FA
:10567000FFF7F8F84FF480707B49086140004861FB
:1056800028127B49086080207749486108618000C2
:1056900008614010086140004861E8B27449086040
:1056A00080207149486108618000086140100861EC
:1056B0004000486128126E49086080206A494861AC
:1056C0000861800008614010086140004861E8B24C
:1056D000674908608020644948610861800008616A
:1056E00063E0FFE76348808846F60401884249D1B9
:1056F00060488079012804D15E480088401E001B64
:1057000084B25C494889FFF7ADF84FF48070564980
:1057100008614000486120125549086080205249C4
:1057200048610861800008614010086140004861DC
:10573000E0B24F49086080204B4948610861800011
:1057400008614C498889FFF78DF84FF4807046490D
:10575000086140004861281245490860802042499C
:10576000486108618000086140100861400048619C
:10577000E8B23F49086080203B49486108618000E9
:10578000086112E03B488079012804D1394800883B
:10579000401E001B84B2374948892146FFF7AFF805
:1057A000344988892946FFF7AAF84FF480702E49BA
:1057B0004861400048612F4800892D4908608020D9
:1057C0002949486108618000086140100861400073
:1057D00048612748066080204861086180000861B0
:1057E00070BD2DE9F0410446BE20FFF73BF84FF4B1
:1057F00080701D4908614000486105201C4908600F
:1058000080201949486108618000086140100861E2
:1058100040004861204605F05BFC05464FF06632CB
:10582000154B05F069FC074605F00EFC10490860B1
:1058300080200D49486108618000086140100861BE
:105840004000486101200A490860802006494861FB
:105850000861800008614010086140004861FF2035
:1058600003490860802009E0001001403600002054
:105870000C0C01407401002066660440FE4948613A
:105880000861800008614010086140004861002004
:10589000FA4908608020F849486108618000086181
:1058A00040100861400048610020F44908608020F1
:1058B000F1494861086180000861BDE8F08110B5D8
:1058C0000446002C66D1EE498871F02008804FF420
:1058D000A07048800846808849F2413188420BD048
:1058E000E748808846F60401884205D0E44880886D
:1058F00045F2103188421AD12C20E14908812A2032
:1059000048812B2088810846808846F60401884219
:1059100005D0DB48808845F21031884206D14FF42B
:10592000A070D74908804FF4F0704880A1E0D448B7
:10593000808845F21051884210D14FF43050D04940
:1059400008814FF4285048814FF42C5088814FF43F
:10595000F07008804FF4487048808AE0C84880881A
:1059600041F6631188420DD12C20C54908812B20B6
:1059700048812A2088814FF4F07008804FF44870E5
:10598000488076E02220BE490881202048812120DD
:1059900088816EE00120BA4988714FF4A0700880B8
:1059A000F02048800846808849F24131884205D07D
:1059B000B348808845F21031884207D12C20B04985
:1059C00008812A2048812B2088813FE0AC488088CC
:1059D00046F60401884207D12C20A94908812B20D2
:1059E00048812A20888131E0A548808845F21051FD
:1059F000884210D14FF43050A14908814FF428500B
:105A000048814FF42C5088814FF4487008804FF43F
:105A1000F07048801AE09A48808841F66311884205
:105A20000DD12C20964908812A2048812B2088817D
:105A30004FF4487008804FF4F070488006E0222050
:105A40008F49088121204881202088818C488088C6
:105A500046F60401884205D08948808845F2103115
:105A6000884206D14FF4F070854908804FF4A07049
:105A700048800020FFF7BDFA10BD2DE9F04F86B039
:105A800004460D469046994604EB0800401E86B237
:105A900005EB0900401E87B27948808849F2413100
:105AA000884215D07648808845F2103188420FD060
:105AB0007348808846F60401884209D0704880798E
:105AC00001287BD16E48808841F66311884275D1E8
:105AD0006B494889FEF7C6FE4FF48070664908613D
